:020000040800F2
:10000000800600201D0200086F0500082702000876
:100010006B050008D7020008A107000800000000D7
:10002000000000000000000000000000B50500080E
:10003000DB0200080000000033020008350200085F
:1000400037020008370200083702000837020008AC
:10005000370200083702000837020008370200089C
:10006000370200083702000837020008370200088C
:10007000370200083702000837020008370200087C
:100080003702000837020008370200089D07000801
:100090009F070008370200083702000837020008EF
:1000A000370200083702000837020008370200084C
:1000B000370200083702000837020008370200083C
:1000C000370200083702000837020008370200082C
:1000D000370200083702000837020008370200081C
:1000E00037020008370200089107000837020008AD
:1000F000370200083702000837020008000000003D
:10010000370200080000000037020008370200082C
:1001100037020008370200083702000837020008DB
:1001200037020008370200083702000837020008CB
:1001300000000000370200083702000837020008FC
:1001400000000000000000000000000000000000AF
:10015000000000000000000000000000000000009F
:10016000370200083702000837020008370200088B
:1001700037020008370200083702000800F002F8D2
:1001800000F03CF80AA090E8000C82448344AAF1F5
:100190000107DA4501D100F031F8AFF2090EBAE8F3
:1001A0000F0013F0010F18BFFB1A43F001031847AB
:1001B0001406000034060000103A24BF78C878C145
:1001C000FAD8520724BF30C830C144BF04680C605D
:1001D000704700000023002400250026103A28BFA5
:1001E00078C1FBD8520728BF30C148BF0B607047A9
:1001F0001FB500F0E1FA1FBD10B510BD00F031F8D9
:100200001146FFF7F5FF00F0CDFA00F04FF803B408
:10021000FFF7F2FF03BC00F057F8000009488047E1
:1002200009480047FEE7FEE7FEE7FEE7FEE7FEE7D8
:10023000FEE7FEE7FEE7FEE704480549054A064BF0
:1002400070470000D50600087D01000880000020EE
:100250008006002080020020800200207047704746
:100260007047754600F02CF8AE46050069465346C7
:1002700020F00700854618B020B5FFF7DDFFBDE888
:1002800020404FF000064FF000074FF000084FF0FD
:10029000000B21F00701AC46ACE8C009ACE8C0098E
:1002A000ACE8C009ACE8C0098D46704710B50446FB
:1002B000AFF300802046BDE81040FFF7A8BF000064
:1002C000004870471C00002001491820ABBEFEE723
:1002D00026000200704700BFFEE7704710B56FF0C0
:1002E000040000F0E3F90B4890ED000AB8EE400A74
:1002F000DFED090A80EE201A084880ED001A90ED23
:10030000000ADFED070A20EE200A064880ED000A09
:1003100010BD0000000000200024F44A140000205A
:1003200000007A441800002043E0B0F5FA7F11DDA8
:10033000214A92ED000ADFED210A20EE200ABCEEF0
:10034000C00A10EE102A4FF0E0235A61A0F5FA72AD
:1003500090B210E000EE100AB8EE400A164AD2ED54
:10036000000A20EE200ABCEEC00A10EE102A4FF060
:10037000E0235A61002000224FF0E0239A611A46E0
:10038000126942F001021A6100BF4FF0E0221169C8
:1003900001F001021AB101F48032002AF5D04FF0C9
:1003A000E022126922F001024FF0E0231A610022DC
:1003B0009A610028B9D17047180000200000FA4364
:1003C0000149086070470000140401401848806922
:1003D00040F00100164988611648C06920F40010F9
:1003E0001449C8610846C06940F40010C861022081
:1003F0001149086000BF1048001D006800F00100AE
:100400000028F8D10D480C49091F08600C480A491A
:100410008839C1F8840000BF07480830006800F040
:1004200080000028F8D104491031086070470000AE
:10043000001002400000014088200240230167456F
:10044000AB89EFCD2DE9F0410246002500260020C2
:1004500000230024002791F803C00CF00F0591F849
:1004600003C00CF0100CBCF1000F03D091F802C0D7
:100470004CEA050591F800C0BCF1000F31D01468BA
:1004800000202BE04FF0010C0CFA00F3B1F800C093
:100490000CEA03069E4220D183004FF00F0C0CFAA9
:1004A00003F7BC4305FA03FC4CEA040491F803C0CB
:1004B000BCF1280F06D14FF0010C0CFA00FCC2F879
:1004C00014C00AE091F803C0BCF1480F05D14FF009
:1004D000010C0CFA00FCC2F810C0401C0828D1D353
:1004E0001460B1F800C0BCF1FF0F34DD5468002087
:1004F0002EE000F1080C4FF0010808FA0CF3B1F8F7
:1005000000C00CEA03069E4221D183004FF00F0C7D
:100510000CFA03F7BC4305FA03FC4CEA040491F817
:1005200003C0BCF1280F05D100F1080C08FA0CF843
:10053000C2F8148091F803C0BCF1480F07D100F154
:10054000080C4FF0010808FA0CF8C2F81080401CA3
:100550000828CED35460BDE8F0814FF6FF710180CA
:10056000022181700421C170704700BFFEE770470F
:1005700029B1064A92690243044B9A6104E0034A96
:1005800092698243014B9A6170470000001002405B
:10059000012806D10649496D41F03001044A5165F0
:1005A00005E00349496D21F03001014A516570476A
:1005B00000100240704710B500F002F810BD0000B6
:1005C0001CB50020019000903548006840F4803050
:1005D0003349086000BF3248006800F400300090E2
:1005E0000198401C0190009818B90198B0F5405F3F
:1005F000F1D12B48006800F4003010B101200090C8
:1006000001E0002000900098012847D1244840686C
:10061000234948600846406820F460504860084616
:10062000406840F4005048600846406820F4E060AC
:1006300048600846406840F480604860084640686A
:10064000184908401649486008464068164908435A
:10065000134948600846006840F08070086000BF99
:100660000F48006800F000700028F9D00120FFF763
:100670008FFF0B48406820F0030009494860084696
:10068000406840F00200486000BF0548406800F044
:100690000C000828F9D10020FFF77AFF1CBD0000EC
:1006A00000100240FFFFC01F000011A0042808D165
:1006B0004FF0E021096941F004014FF0E02211619F
:1006C00007E04FF0E021096921F004014FF0E0223A
:1006D0001161704710B51B48006840F4700019495B
:1006E00008601948006840F0010017490860084692
:1006F0004068164908401449486008460068144993
:100700000840114908600846006820F4802008600D
:10071000084640680F4908400B4948600846006B8E
:100720000D490840084908634FF41F008860FFF72F
:1007300042FFFFF74BFE4FF000600249803908602E
:1007400010BD000088ED00E0001002400C00FFE842
:10075000FFFFF6FEFFFF001700FFFEFE08B568462C
:10076000FFF7FBFE01214020FFF702FF4FF480500E
:10077000ADF8000001208DF8020010208DF8030074
:1007800069460248FFF75EFE08BD00000008014010
:1007900010B54FF48020FFF713FE10BD704770476F
:1007A00000BFFEE7FFF7DAFFFFF798FD03E04FF425
:1007B0007A70FFF7B9FDFAE74FF04070E1EE100AEA
:1007C00070470000E4070008000000201C00000043
:1007D000B8010008000800081C00002064060000A2
:1007E000D4010008007A030A0000000000000000A5
:1007F00001020304060708090000000000000000D1
:040000050800017D71
:00000001FF
